:103800000C942A1C0C94471C0C94471C0C94471CC9
:103810000C94471C0C94471C0C94471C0C94471C9C
:103820000C94471C0C94471C0C94471C0C94471C8C
:103830000C94471C0C94471C0C94471C0C94471C7C
:103840000C94471C0C94471C0C94471C0C94471C6C
:103850000C94471C11241FBECFE5D4E0DEBFCDBFC2
:1038600012E0A0E6B0E0E0E2FBE302C005900D92BA
:10387000AE33B107D9F723E0AEE3B2E001C01D9249
:10388000A13CB207E1F70E94091D0C948E1D0C9417
:10389000001CCF93DF9300D000D0CDB7DEB72091CE
:1038A0000000309101003C832B83709301006093F2
:1038B000000020911E0030911F003A8329839093CD
:1038C0001F0080931E0050E058BF47BFE89587B7A0
:1038D00098B780FDFCCF89819A8190931F008093D7
:1038E0001E008B819C8190930100809300000F90BB
:1038F0000F900F900F90DF91CF91089543E060E01B
:1039000070E080789F730C94491C41E08E77992772
:103910000C94491C45E060E070E080789F730C9443
:10392000491C87B798B7816198BF87BFE89508950C
:103930008F929F92AF92BF92EF92FF920F931F933D
:10394000CF93DF93EA014B015C0147E0880C991C9F
:10395000AA1CBB1C4A95D1F78401C4010E947E1C9D
:103960007E0180E8E80EF11C0C1B1D0B288189816B
:1039700090E0982F8827BC01620F711DC8018C0F41
:103980009D1F0E94851C2296CE15DF0579F7C40184
:103990000E948A1CDF91CF911F910F91FF90EF90B1
:1039A000BF90AF909F908F900C94911CCF93DF931A
:1039B00080E690E00E94761D81E40E94721D8AE0FC
:1039C0000E94721D0E948A1D80933E0280913E02D9
:1039D000805380933E0280913E0220E8829FC00186
:1039E00011249093400280933F02C0E0D0E0809188
:1039F0003F0290914002C817D90740F40E948A1DE7
:103A0000FE01EF5BFD4F80832196F1CFDF91CF91D7
:103A100008958CE090E00E946B1D88E790E00E9482
:103A2000761D8AE990E00E94761D0E948A1DC82FAB
:103A300086EB90E00E94761D8C2F0E94721D86E01E
:103A40000E94721D83EF90E00E94761DC634F9F04B
:103A500088F4C134E9F583ED90E00E94761D85EF8E
:103A600090E00E94761D85E091E00E94761D81E342
:103A700091E0D9CFC23529F1C53551F589E491E0FE
:103A80000E94761D0E94D61C83E891E0CCCF88EA84
:103A900091E00E94761DC0E080913E02C81770F44C
:103AA00080E8C89FA00111244F5B5D4F6C2F70E030
:103AB00080E090E00E94981CCF5FEECF83EC91E015
:103AC00002C084EE91E00E94761D0C940000ADCF00
:103AD0008BE092E0A8CF90BD89B988E18AB986E8E9
:103AE00080BD08955D9BFECF8CB908950F931F9301
:103AF000CF938C01C0E0F801EC0FF11D80818A307A
:103B000021F0CF5F0E94721DF6CFCF911F910F91D0
:103B10000C94721D5F9BFECF8CB10895F894FFCF7B
:103B2000424C445F44454255473A2053454E444930
:103B30004E472041434B0A00424C445F44454255A6
:103B4000473A2048454C4C4F2046524F4D20424F5B
:103B50004F544C4F414445520A00424C445F444547
:103B60004255473A2057414954494E4720464F5203
:103B700020434D440A00424C445F44454255473A75
:103B800020434D442052454349455645442049531E
:103B90000A2000424C445F44454255473A20534571
:103BA0004E44494E4720434F4D4D414E44204C49D1
:103BB00053543A0A00092046203A20544F20464CDC
:103BC0004153480A00092055203A20544F205550AF
:103BD0004C4F414445204E4557204150504C49439D
:103BE0004154494F4E204845582041525241590AAC
:103BF00000092041203A20544F2053454E44204391
:103C00004D44204C4953540A00424C445F444542C1
:103C100055473A2055504C4F4144494E472041505A
:103C2000504C49434154494F4E20434F4445204254
:103C30005954455320434D44205245434945564528
:103C4000440A00424C445F44454255473A20434FA2
:103C500044452055504C4F4144494E4720434F4D19
:103C6000504C455445440A00424C445F444542553B
:103C7000473A20535441525420464C415348494EF0
:103C8000470A00424C445F44454255473A20464C5F
:103C9000415348494E472049532046494E495348CD
:103CA00045440A00424C445F44454255473A204A45
:103CB000554D50494E4720544F204150504C494398
:103CC0004154494F4E20434F444500424C445F44C9
:103CD000454255473A20554E444546494E454420B5
:103CE000434D442C20544F2047455420434D4420FD
:0E3CF0004C4953542053454E4420410A0000D5
:0400000300003800C1
:00000001FF
